{
  "_format": "hh-sol-artifact-1",
  "contractName": "NFT",
  "sourceName": "src/backend/contracts/NFT.sol",
  "abi": [
    {
      "inputs": [
        {
          "internalType": "address",
          "name": "_teamWallet",
          "type": "address"
        }
      ],
      "stateMutability": "nonpayable",
      "type": "constructor"
    },
    {
      "inputs": [],
      "name": "ApprovalCallerNotOwnerNorApproved",
      "type": "error"
    },
    {
      "inputs": [],
      "name": "ApprovalQueryForNonexistentToken",
      "type": "error"
    },
    {
      "inputs": [],
      "name": "BalanceQueryForZeroAddress",
      "type": "error"
    },
    {
      "inputs": [],
      "name": "MintERC2309QuantityExceedsLimit",
      "type": "error"
    },
    {
      "inputs": [],
      "name": "MintToZeroAddress",
      "type": "error"
    },
    {
      "inputs": [],
      "name": "MintZeroQuantity",
      "type": "error"
    },
    {
      "inputs": [
        {
          "internalType": "address",
          "name": "operator",
          "type": "address"
        }
      ],
      "name": "OperatorNotAllowed",
      "type": "error"
    },
    {
      "inputs": [],
      "name": "OwnerQueryForNonexistentToken",
      "type": "error"
    },
    {
      "inputs": [],
      "name": "OwnershipNotInitializedForExtraData",
      "type": "error"
    },
    {
      "inputs": [],
      "name": "TransferCallerNotOwnerNorApproved",
      "type": "error"
    },
    {
      "inputs": [],
      "name": "TransferFromIncorrectOwner",
      "type": "error"
    },
    {
      "inputs": [],
      "name": "TransferToNonERC721ReceiverImplementer",
      "type": "error"
    },
    {
      "inputs": [],
      "name": "TransferToZeroAddress",
      "type": "error"
    },
    {
      "inputs": [],
      "name": "URIQueryForNonexistentToken",
      "type": "error"
    },
    {
      "anonymous": false,
      "inputs": [
        {
          "indexed": true,
          "internalType": "address",
          "name": "owner",
          "type": "address"
        },
        {
          "indexed": true,
          "internalType": "address",
          "name": "approved",
          "type": "address"
        },
        {
          "indexed": true,
          "internalType": "uint256",
          "name": "tokenId",
          "type": "uint256"
        }
      ],
      "name": "Approval",
      "type": "event"
    },
    {
      "anonymous": false,
      "inputs": [
        {
          "indexed": true,
          "internalType": "address",
          "name": "owner",
          "type": "address"
        },
        {
          "indexed": true,
          "internalType": "address",
          "name": "operator",
          "type": "address"
        },
        {
          "indexed": false,
          "internalType": "bool",
          "name": "approved",
          "type": "bool"
        }
      ],
      "name": "ApprovalForAll",
      "type": "event"
    },
    {
      "anonymous": false,
      "inputs": [
        {
          "indexed": true,
          "internalType": "uint256",
          "name": "fromTokenId",
          "type": "uint256"
        },
        {
          "indexed": false,
          "internalType": "uint256",
          "name": "toTokenId",
          "type": "uint256"
        },
        {
          "indexed": true,
          "internalType": "address",
          "name": "from",
          "type": "address"
        },
        {
          "indexed": true,
          "internalType": "address",
          "name": "to",
          "type": "address"
        }
      ],
      "name": "ConsecutiveTransfer",
      "type": "event"
    },
    {
      "anonymous": false,
      "inputs": [
        {
          "indexed": false,
          "internalType": "address",
          "name": "user",
          "type": "address"
        }
      ],
      "name": "MintSuccessful",
      "type": "event"
    },
    {
      "anonymous": false,
      "inputs": [
        {
          "indexed": true,
          "internalType": "address",
          "name": "previousOwner",
          "type": "address"
        },
        {
          "indexed": true,
          "internalType": "address",
          "name": "newOwner",
          "type": "address"
        }
      ],
      "name": "OwnershipTransferred",
      "type": "event"
    },
    {
      "anonymous": false,
      "inputs": [
        {
          "indexed": true,
          "internalType": "address",
          "name": "from",
          "type": "address"
        },
        {
          "indexed": true,
          "internalType": "address",
          "name": "to",
          "type": "address"
        },
        {
          "indexed": true,
          "internalType": "uint256",
          "name": "tokenId",
          "type": "uint256"
        }
      ],
      "name": "Transfer",
      "type": "event"
    },
    {
      "inputs": [
        {
          "internalType": "address",
          "name": "to",
          "type": "address"
        },
        {
          "internalType": "uint256",
          "name": "tokenId",
          "type": "uint256"
        }
      ],
      "name": "approve",
      "outputs": [],
      "stateMutability": "payable",
      "type": "function"
    },
    {
      "inputs": [
        {
          "internalType": "address",
          "name": "owner",
          "type": "address"
        }
      ],
      "name": "balanceOf",
      "outputs": [
        {
          "internalType": "uint256",
          "name": "",
          "type": "uint256"
        }
      ],
      "stateMutability": "view",
      "type": "function"
    },
    {
      "inputs": [],
      "name": "baseTokenURI",
      "outputs": [
        {
          "internalType": "string",
          "name": "",
          "type": "string"
        }
      ],
      "stateMutability": "pure",
      "type": "function"
    },
    {
      "inputs": [],
      "name": "burnAmount",
      "outputs": [
        {
          "internalType": "uint256",
          "name": "",
          "type": "uint256"
        }
      ],
      "stateMutability": "view",
      "type": "function"
    },
    {
      "inputs": [],
      "name": "contractURI",
      "outputs": [
        {
          "internalType": "string",
          "name": "",
          "type": "string"
        }
      ],
      "stateMutability": "pure",
      "type": "function"
    },
    {
      "inputs": [
        {
          "internalType": "uint256",
          "name": "tokenId",
          "type": "uint256"
        }
      ],
      "name": "getApproved",
      "outputs": [
        {
          "internalType": "address",
          "name": "",
          "type": "address"
        }
      ],
      "stateMutability": "view",
      "type": "function"
    },
    {
      "inputs": [],
      "name": "getPrice",
      "outputs": [
        {
          "internalType": "uint256",
          "name": "",
          "type": "uint256"
        }
      ],
      "stateMutability": "view",
      "type": "function"
    },
    {
      "inputs": [
        {
          "internalType": "address",
          "name": "owner",
          "type": "address"
        },
        {
          "internalType": "address",
          "name": "operator",
          "type": "address"
        }
      ],
      "name": "isApprovedForAll",
      "outputs": [
        {
          "internalType": "bool",
          "name": "",
          "type": "bool"
        }
      ],
      "stateMutability": "view",
      "type": "function"
    },
    {
      "inputs": [],
      "name": "max_supply",
      "outputs": [
        {
          "internalType": "uint256",
          "name": "",
          "type": "uint256"
        }
      ],
      "stateMutability": "view",
      "type": "function"
    },
    {
      "inputs": [],
      "name": "mintEnabled",
      "outputs": [
        {
          "internalType": "bool",
          "name": "",
          "type": "bool"
        }
      ],
      "stateMutability": "view",
      "type": "function"
    },
    {
      "inputs": [],
      "name": "name",
      "outputs": [
        {
          "internalType": "string",
          "name": "",
          "type": "string"
        }
      ],
      "stateMutability": "view",
      "type": "function"
    },
    {
      "inputs": [],
      "name": "owner",
      "outputs": [
        {
          "internalType": "address",
          "name": "",
          "type": "address"
        }
      ],
      "stateMutability": "view",
      "type": "function"
    },
    {
      "inputs": [
        {
          "internalType": "uint256",
          "name": "tokenId",
          "type": "uint256"
        }
      ],
      "name": "ownerOf",
      "outputs": [
        {
          "internalType": "address",
          "name": "",
          "type": "address"
        }
      ],
      "stateMutability": "view",
      "type": "function"
    },
    {
      "inputs": [],
      "name": "price",
      "outputs": [
        {
          "internalType": "uint256",
          "name": "",
          "type": "uint256"
        }
      ],
      "stateMutability": "view",
      "type": "function"
    },
    {
      "inputs": [],
      "name": "renounceOwnership",
      "outputs": [],
      "stateMutability": "nonpayable",
      "type": "function"
    },
    {
      "inputs": [
        {
          "internalType": "address",
          "name": "from",
          "type": "address"
        },
        {
          "internalType": "address",
          "name": "to",
          "type": "address"
        },
        {
          "internalType": "uint256",
          "name": "tokenId",
          "type": "uint256"
        }
      ],
      "name": "safeTransferFrom",
      "outputs": [],
      "stateMutability": "payable",
      "type": "function"
    },
    {
      "inputs": [
        {
          "internalType": "address",
          "name": "from",
          "type": "address"
        },
        {
          "internalType": "address",
          "name": "to",
          "type": "address"
        },
        {
          "internalType": "uint256",
          "name": "tokenId",
          "type": "uint256"
        },
        {
          "internalType": "bytes",
          "name": "data",
          "type": "bytes"
        }
      ],
      "name": "safeTransferFrom",
      "outputs": [],
      "stateMutability": "payable",
      "type": "function"
    },
    {
      "inputs": [
        {
          "internalType": "address",
          "name": "",
          "type": "address"
        },
        {
          "internalType": "uint256",
          "name": "",
          "type": "uint256"
        }
      ],
      "name": "scratched",
      "outputs": [
        {
          "internalType": "uint256",
          "name": "",
          "type": "uint256"
        }
      ],
      "stateMutability": "view",
      "type": "function"
    },
    {
      "inputs": [
        {
          "internalType": "address",
          "name": "operator",
          "type": "address"
        },
        {
          "internalType": "bool",
          "name": "approved",
          "type": "bool"
        }
      ],
      "name": "setApprovalForAll",
      "outputs": [],
      "stateMutability": "nonpayable",
      "type": "function"
    },
    {
      "inputs": [
        {
          "internalType": "bool",
          "name": "_state",
          "type": "bool"
        }
      ],
      "name": "setMintEnabled",
      "outputs": [],
      "stateMutability": "nonpayable",
      "type": "function"
    },
    {
      "inputs": [
        {
          "internalType": "uint256",
          "name": "_price",
          "type": "uint256"
        }
      ],
      "name": "setPrice",
      "outputs": [],
      "stateMutability": "nonpayable",
      "type": "function"
    },
    {
      "inputs": [
        {
          "internalType": "bytes4",
          "name": "interfaceId",
          "type": "bytes4"
        }
      ],
      "name": "supportsInterface",
      "outputs": [
        {
          "internalType": "bool",
          "name": "",
          "type": "bool"
        }
      ],
      "stateMutability": "view",
      "type": "function"
    },
    {
      "inputs": [],
      "name": "symbol",
      "outputs": [
        {
          "internalType": "string",
          "name": "",
          "type": "string"
        }
      ],
      "stateMutability": "view",
      "type": "function"
    },
    {
      "inputs": [
        {
          "internalType": "uint256",
          "name": "_tokenId",
          "type": "uint256"
        }
      ],
      "name": "tokenURI",
      "outputs": [
        {
          "internalType": "string",
          "name": "",
          "type": "string"
        }
      ],
      "stateMutability": "view",
      "type": "function"
    },
    {
      "inputs": [],
      "name": "totalSupply",
      "outputs": [
        {
          "internalType": "uint256",
          "name": "",
          "type": "uint256"
        }
      ],
      "stateMutability": "view",
      "type": "function"
    },
    {
      "inputs": [
        {
          "internalType": "address",
          "name": "from",
          "type": "address"
        },
        {
          "internalType": "address",
          "name": "to",
          "type": "address"
        },
        {
          "internalType": "uint256",
          "name": "tokenId",
          "type": "uint256"
        }
      ],
      "name": "transferFrom",
      "outputs": [],
      "stateMutability": "payable",
      "type": "function"
    },
    {
      "inputs": [
        {
          "internalType": "address",
          "name": "newOwner",
          "type": "address"
        }
      ],
      "name": "transferOwnership",
      "outputs": [],
      "stateMutability": "nonpayable",
      "type": "function"
    },
    {
      "inputs": [],
      "name": "uriPrefix",
      "outputs": [
        {
          "internalType": "string",
          "name": "",
          "type": "string"
        }
      ],
      "stateMutability": "view",
      "type": "function"
    },
    {
      "inputs": [],
      "name": "uriSuffix",
      "outputs": [
        {
          "internalType": "string",
          "name": "",
          "type": "string"
        }
      ],
      "stateMutability": "view",
      "type": "function"
    },
    {
      "inputs": [],
      "name": "withdraw",
      "outputs": [],
      "stateMutability": "nonpayable",
      "type": "function"
    }
  ],
  "bytecode": "0x608060405260405180602001604052806000815250600990805190602001906200002b929190620006f4565b506040518060400160405280600581526020017f2e6a736f6e000000000000000000000000000000000000000000000000000000815250600a908051906020019062000079929190620006f4565b50612710600b556000600f553480156200009257600080fd5b50604051620034e0380380620034e08339818101604052810190620000b891906200080e565b733cc6cdda760b79bafa08df41ecfa224f810dceb660016040518060400160405280600c81526020017f496e6e6f766120517565737400000000000000000000000000000000000000008152506040518060400160405280600581526020017f49544769710000000000000000000000000000000000000000000000000000008152506200015b6200014f620003b760201b60201c565b620003bf60201b60201c565b816003908051906020019062000173929190620006f4565b5080600490805190602001906200018c929190620006f4565b506200019d6200048360201b60201c565b600181905550505060006daaeb6d7670e522a718067333cd4e73ffffffffffffffffffffffffffffffffffffffff163b11156200039a57801562000260576daaeb6d7670e522a718067333cd4e73ffffffffffffffffffffffffffffffffffffffff16637d3e3dbe30846040518363ffffffff1660e01b81526004016200022692919062000851565b600060405180830381600087803b1580156200024157600080fd5b505af115801562000256573d6000803e3d6000fd5b5050505062000399565b600073ffffffffffffffffffffffffffffffffffffffff168273ffffffffffffffffffffffffffffffffffffffff16146200031a576daaeb6d7670e522a718067333cd4e73ffffffffffffffffffffffffffffffffffffffff1663a0af290330846040518363ffffffff1660e01b8152600401620002e092919062000851565b600060405180830381600087803b158015620002fb57600080fd5b505af115801562000310573d6000803e3d6000fd5b5050505062000398565b6daaeb6d7670e522a718067333cd4e73ffffffffffffffffffffffffffffffffffffffff16634420e486306040518263ffffffff1660e01b81526004016200036391906200087e565b600060405180830381600087803b1580156200037e57600080fd5b505af115801562000393573d6000803e3d6000fd5b505050505b5b5b5050620003b081600b546200048c60201b60201c565b50620008ff565b600033905090565b60008060009054906101000a900473ffffffffffffffffffffffffffffffffffffffff169050816000806101000a81548173ffffffffffffffffffffffffffffffffffffffff021916908373ffffffffffffffffffffffffffffffffffffffff1602179055508173ffffffffffffffffffffffffffffffffffffffff168173ffffffffffffffffffffffffffffffffffffffff167f8be0079c531659141344cd1fd0a4f28419497f9722a3daafe3b4186f6b6457e060405160405180910390a35050565b60006001905090565b6000600154905060008203620004ce576040517fb562e8dd00000000000000000000000000000000000000000000000000000000815260040160405180910390fd5b620004e360008483856200067460201b60201c565b600160406001901b178202600660008573ffffffffffffffffffffffffffffffffffffffff1673ffffffffffffffffffffffffffffffffffffffff1681526020019081526020016000206000828254019250508190555062000572836200055460008660006200067a60201b60201c565b6200056585620006aa60201b60201c565b17620006ba60201b60201c565b6005600083815260200190815260200160002081905550600080838301905073ffffffffffffffffffffffffffffffffffffffff85169150828260007fddf252ad1be2c89b69c2b068fc378daa952ba7f163c4a11628f55a4df523b3ef600080a4600183015b8181146200061557808360007fddf252ad1be2c89b69c2b068fc378daa952ba7f163c4a11628f55a4df523b3ef600080a4600181019050620005d8565b506000820362000651576040517f2e07630000000000000000000000000000000000000000000000000000000000815260040160405180910390fd5b8060018190555050506200066f6000848385620006e560201b60201c565b505050565b50505050565b60008060e883901c905060e862000699868684620006eb60201b60201c565b62ffffff16901b9150509392505050565b60006001821460e11b9050919050565b600073ffffffffffffffffffffffffffffffffffffffff83169250814260a01b178317905092915050565b50505050565b60009392505050565b8280546200070290620008ca565b90600052602060002090601f01602090048101928262000726576000855562000772565b82601f106200074157805160ff191683800117855562000772565b8280016001018555821562000772579182015b828111156200077157825182559160200191906001019062000754565b5b50905062000781919062000785565b5090565b5b80821115620007a057600081600090555060010162000786565b5090565b600080fd5b600073ffffffffffffffffffffffffffffffffffffffff82169050919050565b6000620007d682620007a9565b9050919050565b620007e881620007c9565b8114620007f457600080fd5b50565b6000815190506200080881620007dd565b92915050565b600060208284031215620008275762000826620007a4565b5b60006200083784828501620007f7565b91505092915050565b6200084b81620007c9565b82525050565b600060408201905062000868600083018562000840565b62000877602083018462000840565b9392505050565b600060208201905062000895600083018462000840565b92915050565b7f4e487b7100000000000000000000000000000000000000000000000000000000600052602260045260246000fd5b60006002820490506001821680620008e357607f821691505b602082108103620008f957620008f86200089b565b5b50919050565b612bd1806200090f6000396000f3fe6080604052600436106101cd5760003560e01c80638a333b50116100f7578063b88d4fde11610095578063e8a3d48511610064578063e8a3d48514610634578063e985e9c51461065f578063f2fde38b1461069c578063f46a04eb146106c5576101cd565b8063b88d4fde14610585578063c87b56dd146105a1578063d1239730146105de578063d547cfb714610609576101cd565b806395d89b41116100d157806395d89b41146104db57806398d5fdca14610506578063a035b1fe14610531578063a22cb4651461055c576101cd565b80638a333b501461045c5780638da5cb5b1461048757806391b7f5ed146104b2576101cd565b806342842e0e1161016f57806362b99ad41161013e57806362b99ad4146103a05780636352211e146103cb57806370a0823114610408578063715018a614610445576101cd565b806342842e0e146102f1578063486a7e6b1461030d5780635503a0e8146103385780636242359514610363576101cd565b8063095ea7b3116101ab578063095ea7b31461027757806318160ddd1461029357806323b872dd146102be5780633ccfd60b146102da576101cd565b806301ffc9a7146101d257806306fdde031461020f578063081812fc1461023a575b600080fd5b3480156101de57600080fd5b506101f960048036038101906101f49190612138565b6106ee565b6040516102069190612180565b60405180910390f35b34801561021b57600080fd5b50610224610780565b6040516102319190612234565b60405180910390f35b34801561024657600080fd5b50610261600480360381019061025c919061228c565b610812565b60405161026e91906122fa565b60405180910390f35b610291600480360381019061028c9190612341565b610891565b005b34801561029f57600080fd5b506102a86109d5565b6040516102b59190612390565b60405180910390f35b6102d860048036038101906102d391906123ab565b6109ec565b005b3480156102e657600080fd5b506102ef610bce565b005b61030b600480360381019061030691906123ab565b610c1f565b005b34801561031957600080fd5b50610322610e01565b60405161032f9190612390565b60405180910390f35b34801561034457600080fd5b5061034d610e07565b60405161035a9190612234565b60405180910390f35b34801561036f57600080fd5b5061038a60048036038101906103859190612341565b610e95565b6040516103979190612390565b60405180910390f35b3480156103ac57600080fd5b506103b5610ec6565b6040516103c29190612234565b60405180910390f35b3480156103d757600080fd5b506103f260048036038101906103ed919061228c565b610f54565b6040516103ff91906122fa565b60405180910390f35b34801561041457600080fd5b5061042f600480360381019061042a91906123fe565b610f66565b60405161043c9190612390565b60405180910390f35b34801561045157600080fd5b5061045a61101e565b005b34801561046857600080fd5b50610471611032565b60405161047e9190612390565b60405180910390f35b34801561049357600080fd5b5061049c611038565b6040516104a991906122fa565b60405180910390f35b3480156104be57600080fd5b506104d960048036038101906104d4919061228c565b611061565b005b3480156104e757600080fd5b506104f0611073565b6040516104fd9190612234565b60405180910390f35b34801561051257600080fd5b5061051b611105565b6040516105289190612390565b60405180910390f35b34801561053d57600080fd5b5061054661110f565b6040516105539190612390565b60405180910390f35b34801561056857600080fd5b50610583600480360381019061057e9190612457565b611115565b005b61059f600480360381019061059a91906125cc565b611220565b005b3480156105ad57600080fd5b506105c860048036038101906105c3919061228c565b611405565b6040516105d59190612234565b60405180910390f35b3480156105ea57600080fd5b506105f36114af565b6040516106009190612180565b60405180910390f35b34801561061557600080fd5b5061061e6114c2565b60405161062b9190612234565b60405180910390f35b34801561064057600080fd5b506106496114d1565b6040516106569190612234565b60405180910390f35b34801561066b57600080fd5b506106866004803603810190610681919061264f565b6114f1565b6040516106939190612180565b60405180910390f35b3480156106a857600080fd5b506106c360048036038101906106be91906123fe565b611585565b005b3480156106d157600080fd5b506106ec60048036038101906106e7919061268f565b611608565b005b60006301ffc9a760e01b827bffffffffffffffffffffffffffffffffffffffffffffffffffffffff1916148061074957506380ac58cd60e01b827bffffffffffffffffffffffffffffffffffffffffffffffffffffffff1916145b806107795750635b5e139f60e01b827bffffffffffffffffffffffffffffffffffffffffffffffffffffffff1916145b9050919050565b60606003805461078f906126eb565b80601f01602080910402602001604051908101604052809291908181526020018280546107bb906126eb565b80156108085780601f106107dd57610100808354040283529160200191610808565b820191906000526020600020905b8154815290600101906020018083116107eb57829003601f168201915b5050505050905090565b600061081d8261162d565b610853576040517fcf4700e400000000000000000000000000000000000000000000000000000000815260040160405180910390fd5b6007600083815260200190815260200160002060000160009054906101000a900473ffffffffffffffffffffffffffffffffffffffff169050919050565b600061089c82610f54565b90508073ffffffffffffffffffffffffffffffffffffffff166108bd61168c565b73ffffffffffffffffffffffffffffffffffffffff1614610920576108e9816108e461168c565b6114f1565b61091f576040517fcfb3b94200000000000000000000000000000000000000000000000000000000815260040160405180910390fd5b5b826007600084815260200190815260200160002060000160006101000a81548173ffffffffffffffffffffffffffffffffffffffff021916908373ffffffffffffffffffffffffffffffffffffffff160217905550818373ffffffffffffffffffffffffffffffffffffffff168273ffffffffffffffffffffffffffffffffffffffff167f8c5be1e5ebec7d5bd14f71427d1e84f3dd0314c0f7b2291e5b200ac8c7c3b92560405160405180910390a4505050565b60006109df611694565b6002546001540303905090565b8260006daaeb6d7670e522a718067333cd4e73ffffffffffffffffffffffffffffffffffffffff163b1115610bbc573373ffffffffffffffffffffffffffffffffffffffff168173ffffffffffffffffffffffffffffffffffffffff1603610a5e57610a5984848461169d565b610bc8565b6daaeb6d7670e522a718067333cd4e73ffffffffffffffffffffffffffffffffffffffff1663c617113430336040518363ffffffff1660e01b8152600401610aa792919061271c565b602060405180830381865afa158015610ac4573d6000803e3d6000fd5b505050506040513d601f19601f82011682018060405250810190610ae8919061275a565b8015610b7a57506daaeb6d7670e522a718067333cd4e73ffffffffffffffffffffffffffffffffffffffff1663c617113430836040518363ffffffff1660e01b8152600401610b3892919061271c565b602060405180830381865afa158015610b55573d6000803e3d6000fd5b505050506040513d601f19601f82011682018060405250810190610b79919061275a565b5b610bbb57336040517fede71dcc000000000000000000000000000000000000000000000000000000008152600401610bb291906122fa565b60405180910390fd5b5b610bc784848461169d565b5b50505050565b610bd66119bf565b3373ffffffffffffffffffffffffffffffffffffffff166108fc479081150290604051600060405180830381858888f19350505050158015610c1c573d6000803e3d6000fd5b50565b8260006daaeb6d7670e522a718067333cd4e73ffffffffffffffffffffffffffffffffffffffff163b1115610def573373ffffffffffffffffffffffffffffffffffffffff168173ffffffffffffffffffffffffffffffffffffffff1603610c9157610c8c848484611a3d565b610dfb565b6daaeb6d7670e522a718067333cd4e73ffffffffffffffffffffffffffffffffffffffff1663c617113430336040518363ffffffff1660e01b8152600401610cda92919061271c565b602060405180830381865afa158015610cf7573d6000803e3d6000fd5b505050506040513d601f19601f82011682018060405250810190610d1b919061275a565b8015610dad57506daaeb6d7670e522a718067333cd4e73ffffffffffffffffffffffffffffffffffffffff1663c617113430836040518363ffffffff1660e01b8152600401610d6b92919061271c565b602060405180830381865afa158015610d88573d6000803e3d6000fd5b505050506040513d601f19601f82011682018060405250810190610dac919061275a565b5b610dee57336040517fede71dcc000000000000000000000000000000000000000000000000000000008152600401610de591906122fa565b60405180910390fd5b5b610dfa848484611a3d565b5b50505050565b600c5481565b600a8054610e14906126eb565b80601f0160208091040260200160405190810160405280929190818152602001828054610e40906126eb565b8015610e8d5780601f10610e6257610100808354040283529160200191610e8d565b820191906000526020600020905b815481529060010190602001808311610e7057829003601f168201915b505050505081565b600d6020528160005260406000208181548110610eb157600080fd5b90600052602060002001600091509150505481565b60098054610ed3906126eb565b80601f0160208091040260200160405190810160405280929190818152602001828054610eff906126eb565b8015610f4c5780601f10610f2157610100808354040283529160200191610f4c565b820191906000526020600020905b815481529060010190602001808311610f2f57829003601f168201915b505050505081565b6000610f5f82611a5d565b9050919050565b60008073ffffffffffffffffffffffffffffffffffffffff168273ffffffffffffffffffffffffffffffffffffffff1603610fcd576040517f8f4eb60400000000000000000000000000000000000000000000000000000000815260040160405180910390fd5b67ffffffffffffffff600660008473ffffffffffffffffffffffffffffffffffffffff1673ffffffffffffffffffffffffffffffffffffffff16815260200190815260200160002054169050919050565b6110266119bf565b6110306000611b29565b565b600b5481565b60008060009054906101000a900473ffffffffffffffffffffffffffffffffffffffff16905090565b6110696119bf565b80600f8190555050565b606060048054611082906126eb565b80601f01602080910402602001604051908101604052809291908181526020018280546110ae906126eb565b80156110fb5780601f106110d0576101008083540402835291602001916110fb565b820191906000526020600020905b8154815290600101906020018083116110de57829003601f168201915b5050505050905090565b6000600f54905090565b600f5481565b806008600061112261168c565b73ffffffffffffffffffffffffffffffffffffffff1673ffffffffffffffffffffffffffffffffffffffff16815260200190815260200160002060008473ffffffffffffffffffffffffffffffffffffffff1673ffffffffffffffffffffffffffffffffffffffff16815260200190815260200160002060006101000a81548160ff0219169083151502179055508173ffffffffffffffffffffffffffffffffffffffff166111cf61168c565b73ffffffffffffffffffffffffffffffffffffffff167f17307eab39ab6107e8899845ad3d59bd9653f200f220920489ca2b5937696c31836040516112149190612180565b60405180910390a35050565b8360006daaeb6d7670e522a718067333cd4e73ffffffffffffffffffffffffffffffffffffffff163b11156113f1573373ffffffffffffffffffffffffffffffffffffffff168173ffffffffffffffffffffffffffffffffffffffff16036112935761128e85858585611bed565b6113fe565b6daaeb6d7670e522a718067333cd4e73ffffffffffffffffffffffffffffffffffffffff1663c617113430336040518363ffffffff1660e01b81526004016112dc92919061271c565b602060405180830381865afa1580156112f9573d6000803e3d6000fd5b505050506040513d601f19601f8201168201806040525081019061131d919061275a565b80156113af57506daaeb6d7670e522a718067333cd4e73ffffffffffffffffffffffffffffffffffffffff1663c617113430836040518363ffffffff1660e01b815260040161136d92919061271c565b602060405180830381865afa15801561138a573d6000803e3d6000fd5b505050506040513d601f19601f820116820180604052508101906113ae919061275a565b5b6113f057336040517fede71dcc0000000000000000000000000000000000000000000000000000000081526004016113e791906122fa565b60405180910390fd5b5b6113fd85858585611bed565b5b5050505050565b60606114108261162d565b61144f576040517f08c379a0000000000000000000000000000000000000000000000000000000008152600401611446906127f9565b60405180910390fd5b6000611459611c60565b9050600081511161147957604051806020016040528060008152506114a7565b8061148384611c80565b600a604051602001611497939291906128e9565b6040516020818303038152906040525b915050919050565b600e60009054906101000a900460ff1681565b60606114cc611c60565b905090565b6060604051806060016040528060368152602001612b6660369139905090565b6000600860008473ffffffffffffffffffffffffffffffffffffffff1673ffffffffffffffffffffffffffffffffffffffff16815260200190815260200160002060008373ffffffffffffffffffffffffffffffffffffffff1673ffffffffffffffffffffffffffffffffffffffff16815260200190815260200160002060009054906101000a900460ff16905092915050565b61158d6119bf565b600073ffffffffffffffffffffffffffffffffffffffff168173ffffffffffffffffffffffffffffffffffffffff16036115fc576040517f08c379a00000000000000000000000000000000000000000000000000000000081526004016115f39061298c565b60405180910390fd5b61160581611b29565b50565b6116106119bf565b80600e60006101000a81548160ff02191690831515021790555050565b600081611638611694565b11158015611647575060015482105b8015611685575060007c0100000000000000000000000000000000000000000000000000000000600560008581526020019081526020016000205416145b9050919050565b600033905090565b60006001905090565b60006116a882611a5d565b90508373ffffffffffffffffffffffffffffffffffffffff168173ffffffffffffffffffffffffffffffffffffffff161461170f576040517fa114810000000000000000000000000000000000000000000000000000000000815260040160405180910390fd5b60008061171b84611d4e565b91509150611731818761172c61168c565b611d75565b61177d576117468661174161168c565b6114f1565b61177c576040517f59c896be00000000000000000000000000000000000000000000000000000000815260040160405180910390fd5b5b600073ffffffffffffffffffffffffffffffffffffffff168573ffffffffffffffffffffffffffffffffffffffff16036117e3576040517fea553b3400000000000000000000000000000000000000000000000000000000815260040160405180910390fd5b6117f08686866001611db9565b80156117fb57600082555b600660008773ffffffffffffffffffffffffffffffffffffffff1673ffffffffffffffffffffffffffffffffffffffff168152602001908152602001600020600081546001900391905081905550600660008673ffffffffffffffffffffffffffffffffffffffff1673ffffffffffffffffffffffffffffffffffffffff16815260200190815260200160002060008154600101919050819055506118c9856118a5888887611dbf565b7c020000000000000000000000000000000000000000000000000000000017611de7565b600560008681526020019081526020016000208190555060007c020000000000000000000000000000000000000000000000000000000084160361194f576000600185019050600060056000838152602001908152602001600020540361194d57600154811461194c578360056000838152602001908152602001600020819055505b5b505b838573ffffffffffffffffffffffffffffffffffffffff168773ffffffffffffffffffffffffffffffffffffffff167fddf252ad1be2c89b69c2b068fc378daa952ba7f163c4a11628f55a4df523b3ef60405160405180910390a46119b78686866001611e12565b505050505050565b6119c7611e18565b73ffffffffffffffffffffffffffffffffffffffff166119e5611038565b73ffffffffffffffffffffffffffffffffffffffff1614611a3b576040517f08c379a0000000000000000000000000000000000000000000000000000000008152600401611a32906129f8565b60405180910390fd5b565b611a5883838360405180602001604052806000815250611220565b505050565b60008082905080611a6c611694565b11611af257600154811015611af15760006005600083815260200190815260200160002054905060007c0100000000000000000000000000000000000000000000000000000000821603611aef575b60008103611ae5576005600083600190039350838152602001908152602001600020549050611abb565b8092505050611b24565b505b5b6040517fdf2d9b4200000000000000000000000000000000000000000000000000000000815260040160405180910390fd5b919050565b60008060009054906101000a900473ffffffffffffffffffffffffffffffffffffffff169050816000806101000a81548173ffffffffffffffffffffffffffffffffffffffff021916908373ffffffffffffffffffffffffffffffffffffffff1602179055508173ffffffffffffffffffffffffffffffffffffffff168173ffffffffffffffffffffffffffffffffffffffff167f8be0079c531659141344cd1fd0a4f28419497f9722a3daafe3b4186f6b6457e060405160405180910390a35050565b611bf88484846109ec565b60008373ffffffffffffffffffffffffffffffffffffffff163b14611c5a57611c2384848484611e20565b611c59576040517fd1a57ed600000000000000000000000000000000000000000000000000000000815260040160405180910390fd5b5b50505050565b60606040518060600160405280603b8152602001612b2b603b9139905090565b606060006001611c8f84611f70565b01905060008167ffffffffffffffff811115611cae57611cad6124a1565b5b6040519080825280601f01601f191660200182016040528015611ce05781602001600182028036833780820191505090505b509050600082602001820190505b600115611d43578080600190039150507f3031323334353637383961626364656600000000000000000000000000000000600a86061a8153600a8581611d3757611d36612a18565b5b04945060008503611cee575b819350505050919050565b60008060006007600085815260200190815260200160002090508092508254915050915091565b600073ffffffffffffffffffffffffffffffffffffffff8316925073ffffffffffffffffffffffffffffffffffffffff821691508382148383141790509392505050565b50505050565b60008060e883901c905060e8611dd68686846120c3565b62ffffff16901b9150509392505050565b600073ffffffffffffffffffffffffffffffffffffffff83169250814260a01b178317905092915050565b50505050565b600033905090565b60008373ffffffffffffffffffffffffffffffffffffffff1663150b7a02611e4661168c565b8786866040518563ffffffff1660e01b8152600401611e689493929190612a9c565b6020604051808303816000875af1925050508015611ea457506040513d601f19601f82011682018060405250810190611ea19190612afd565b60015b611f1d573d8060008114611ed4576040519150601f19603f3d011682016040523d82523d6000602084013e611ed9565b606091505b506000815103611f15576040517fd1a57ed600000000000000000000000000000000000000000000000000000000815260040160405180910390fd5b805181602001fd5b63150b7a0260e01b7bffffffffffffffffffffffffffffffffffffffffffffffffffffffff1916817bffffffffffffffffffffffffffffffffffffffffffffffffffffffff191614915050949350505050565b600080600090507a184f03e93ff9f4daa797ed6e38ed64bf6a1f0100000000000000008310611fce577a184f03e93ff9f4daa797ed6e38ed64bf6a1f0100000000000000008381611fc457611fc3612a18565b5b0492506040810190505b6d04ee2d6d415b85acef8100000000831061200b576d04ee2d6d415b85acef8100000000838161200157612000612a18565b5b0492506020810190505b662386f26fc10000831061203a57662386f26fc1000083816120305761202f612a18565b5b0492506010810190505b6305f5e1008310612063576305f5e100838161205957612058612a18565b5b0492506008810190505b612710831061208857612710838161207e5761207d612a18565b5b0492506004810190505b606483106120ab57606483816120a1576120a0612a18565b5b0492506002810190505b600a83106120ba576001810190505b80915050919050565b60009392505050565b6000604051905090565b600080fd5b600080fd5b60007fffffffff0000000000000000000000000000000000000000000000000000000082169050919050565b612115816120e0565b811461212057600080fd5b50565b6000813590506121328161210c565b92915050565b60006020828403121561214e5761214d6120d6565b5b600061215c84828501612123565b91505092915050565b60008115159050919050565b61217a81612165565b82525050565b60006020820190506121956000830184612171565b92915050565b600081519050919050565b600082825260208201905092915050565b60005b838110156121d55780820151818401526020810190506121ba565b838111156121e4576000848401525b50505050565b6000601f19601f8301169050919050565b60006122068261219b565b61221081856121a6565b93506122208185602086016121b7565b612229816121ea565b840191505092915050565b6000602082019050818103600083015261224e81846121fb565b905092915050565b6000819050919050565b61226981612256565b811461227457600080fd5b50565b60008135905061228681612260565b92915050565b6000602082840312156122a2576122a16120d6565b5b60006122b084828501612277565b91505092915050565b600073ffffffffffffffffffffffffffffffffffffffff82169050919050565b60006122e4826122b9565b9050919050565b6122f4816122d9565b82525050565b600060208201905061230f60008301846122eb565b92915050565b61231e816122d9565b811461232957600080fd5b50565b60008135905061233b81612315565b92915050565b60008060408385031215612358576123576120d6565b5b60006123668582860161232c565b925050602061237785828601612277565b9150509250929050565b61238a81612256565b82525050565b60006020820190506123a56000830184612381565b92915050565b6000806000606084860312156123c4576123c36120d6565b5b60006123d28682870161232c565b93505060206123e38682870161232c565b92505060406123f486828701612277565b9150509250925092565b600060208284031215612414576124136120d6565b5b60006124228482850161232c565b91505092915050565b61243481612165565b811461243f57600080fd5b50565b6000813590506124518161242b565b92915050565b6000806040838503121561246e5761246d6120d6565b5b600061247c8582860161232c565b925050602061248d85828601612442565b9150509250929050565b600080fd5b600080fd5b7f4e487b7100000000000000000000000000000000000000000000000000000000600052604160045260246000fd5b6124d9826121ea565b810181811067ffffffffffffffff821117156124f8576124f76124a1565b5b80604052505050565b600061250b6120cc565b905061251782826124d0565b919050565b600067ffffffffffffffff821115612537576125366124a1565b5b612540826121ea565b9050602081019050919050565b82818337600083830152505050565b600061256f61256a8461251c565b612501565b90508281526020810184848401111561258b5761258a61249c565b5b61259684828561254d565b509392505050565b600082601f8301126125b3576125b2612497565b5b81356125c384826020860161255c565b91505092915050565b600080600080608085870312156125e6576125e56120d6565b5b60006125f48782880161232c565b94505060206126058782880161232c565b935050604061261687828801612277565b925050606085013567ffffffffffffffff811115612637576126366120db565b5b6126438782880161259e565b91505092959194509250565b60008060408385031215612666576126656120d6565b5b60006126748582860161232c565b92505060206126858582860161232c565b9150509250929050565b6000602082840312156126a5576126a46120d6565b5b60006126b384828501612442565b91505092915050565b7f4e487b7100000000000000000000000000000000000000000000000000000000600052602260045260246000fd5b6000600282049050600182168061270357607f821691505b602082108103612716576127156126bc565b5b50919050565b600060408201905061273160008301856122eb565b61273e60208301846122eb565b9392505050565b6000815190506127548161242b565b92915050565b6000602082840312156127705761276f6120d6565b5b600061277e84828501612745565b91505092915050565b7f4552433732314d657461646174613a2055524920717565727920666f72206e6f60008201527f6e6578697374656e7420746f6b656e0000000000000000000000000000000000602082015250565b60006127e3602f836121a6565b91506127ee82612787565b604082019050919050565b60006020820190508181036000830152612812816127d6565b9050919050565b600081905092915050565b600061282f8261219b565b6128398185612819565b93506128498185602086016121b7565b80840191505092915050565b60008190508160005260206000209050919050565b60008154612877816126eb565b6128818186612819565b9450600182166000811461289c57600181146128ad576128e0565b60ff198316865281860193506128e0565b6128b685612855565b60005b838110156128d8578154818901526001820191506020810190506128b9565b838801955050505b50505092915050565b60006128f58286612824565b91506129018285612824565b915061290d828461286a565b9150819050949350505050565b7f4f776e61626c653a206e6577206f776e657220697320746865207a65726f206160008201527f6464726573730000000000000000000000000000000000000000000000000000602082015250565b60006129766026836121a6565b91506129818261291a565b604082019050919050565b600060208201905081810360008301526129a581612969565b9050919050565b7f4f776e61626c653a2063616c6c6572206973206e6f7420746865206f776e6572600082015250565b60006129e26020836121a6565b91506129ed826129ac565b602082019050919050565b60006020820190508181036000830152612a11816129d5565b9050919050565b7f4e487b7100000000000000000000000000000000000000000000000000000000600052601260045260246000fd5b600081519050919050565b600082825260208201905092915050565b6000612a6e82612a47565b612a788185612a52565b9350612a888185602086016121b7565b612a91816121ea565b840191505092915050565b6000608082019050612ab160008301876122eb565b612abe60208301866122eb565b612acb6040830185612381565b8181036060830152612add8184612a63565b905095945050505050565b600081519050612af78161210c565b92915050565b600060208284031215612b1357612b126120d6565b5b6000612b2184828501612ae8565b9150509291505056fe697066733a2f2f516d62486d475879794a7a4a44433931706f394b5532787534674a39324867765a4342756d56726a37704e4a696e2f6a736f6e2f697066733a2f2f516d566d636b66675454765763775661586d6971333839746e4243597679684c6343714e375432523747466359662fa2646970667358221220ed65427ebb00e0adbcff6debadde594788825c8bb1cc93a1184e980113f3aacb64736f6c634300080d0033",
  "linkReferences": {},
  "deployedLinkReferences": {}
}